{
  "contractName": "Nft",
  "abi": [
    {
      "inputs": [],
      "stateMutability": "nonpayable",
      "type": "constructor"
    },
    {
      "anonymous": false,
      "inputs": [
        {
          "indexed": true,
          "internalType": "address",
          "name": "owner",
          "type": "address"
        },
        {
          "indexed": true,
          "internalType": "address",
          "name": "approved",
          "type": "address"
        },
        {
          "indexed": true,
          "internalType": "uint256",
          "name": "tokenId",
          "type": "uint256"
        }
      ],
      "name": "Approval",
      "type": "event"
    },
    {
      "anonymous": false,
      "inputs": [
        {
          "indexed": true,
          "internalType": "address",
          "name": "owner",
          "type": "address"
        },
        {
          "indexed": true,
          "internalType": "address",
          "name": "operator",
          "type": "address"
        },
        {
          "indexed": false,
          "internalType": "bool",
          "name": "approved",
          "type": "bool"
        }
      ],
      "name": "ApprovalForAll",
      "type": "event"
    },
    {
      "anonymous": false,
      "inputs": [
        {
          "indexed": false,
          "internalType": "uint256",
          "name": "fileId",
          "type": "uint256"
        },
        {
          "indexed": false,
          "internalType": "string",
          "name": "fileName",
          "type": "string"
        },
        {
          "indexed": false,
          "internalType": "string",
          "name": "fileHash",
          "type": "string"
        },
        {
          "indexed": false,
          "internalType": "string",
          "name": "fileType",
          "type": "string"
        },
        {
          "indexed": false,
          "internalType": "uint256",
          "name": "fileSize",
          "type": "uint256"
        },
        {
          "indexed": false,
          "internalType": "address",
          "name": "minter",
          "type": "address"
        }
      ],
      "name": "FileMinted",
      "type": "event"
    },
    {
      "anonymous": false,
      "inputs": [
        {
          "indexed": true,
          "internalType": "address",
          "name": "from",
          "type": "address"
        },
        {
          "indexed": true,
          "internalType": "address",
          "name": "to",
          "type": "address"
        },
        {
          "indexed": true,
          "internalType": "uint256",
          "name": "tokenId",
          "type": "uint256"
        }
      ],
      "name": "Transfer",
      "type": "event"
    },
    {
      "inputs": [],
      "name": "admin",
      "outputs": [
        {
          "internalType": "address",
          "name": "",
          "type": "address"
        }
      ],
      "stateMutability": "view",
      "type": "function",
      "constant": true
    },
    {
      "inputs": [
        {
          "internalType": "address",
          "name": "to",
          "type": "address"
        },
        {
          "internalType": "uint256",
          "name": "tokenId",
          "type": "uint256"
        }
      ],
      "name": "approve",
      "outputs": [],
      "stateMutability": "nonpayable",
      "type": "function"
    },
    {
      "inputs": [
        {
          "internalType": "address",
          "name": "owner",
          "type": "address"
        }
      ],
      "name": "balanceOf",
      "outputs": [
        {
          "internalType": "uint256",
          "name": "",
          "type": "uint256"
        }
      ],
      "stateMutability": "view",
      "type": "function",
      "constant": true
    },
    {
      "inputs": [
        {
          "internalType": "uint256",
          "name": "tokenId",
          "type": "uint256"
        }
      ],
      "name": "getApproved",
      "outputs": [
        {
          "internalType": "address",
          "name": "",
          "type": "address"
        }
      ],
      "stateMutability": "view",
      "type": "function",
      "constant": true
    },
    {
      "inputs": [
        {
          "internalType": "address",
          "name": "owner",
          "type": "address"
        },
        {
          "internalType": "address",
          "name": "operator",
          "type": "address"
        }
      ],
      "name": "isApprovedForAll",
      "outputs": [
        {
          "internalType": "bool",
          "name": "",
          "type": "bool"
        }
      ],
      "stateMutability": "view",
      "type": "function",
      "constant": true
    },
    {
      "inputs": [],
      "name": "name",
      "outputs": [
        {
          "internalType": "string",
          "name": "",
          "type": "string"
        }
      ],
      "stateMutability": "view",
      "type": "function",
      "constant": true
    },
    {
      "inputs": [],
      "name": "nftCount",
      "outputs": [
        {
          "internalType": "uint256",
          "name": "",
          "type": "uint256"
        }
      ],
      "stateMutability": "view",
      "type": "function",
      "constant": true
    },
    {
      "inputs": [
        {
          "internalType": "uint256",
          "name": "",
          "type": "uint256"
        }
      ],
      "name": "nfts",
      "outputs": [
        {
          "internalType": "uint256",
          "name": "fileId",
          "type": "uint256"
        },
        {
          "internalType": "string",
          "name": "fileName",
          "type": "string"
        },
        {
          "internalType": "string",
          "name": "fileHash",
          "type": "string"
        },
        {
          "internalType": "string",
          "name": "fileType",
          "type": "string"
        },
        {
          "internalType": "uint256",
          "name": "fileSize",
          "type": "uint256"
        },
        {
          "internalType": "address",
          "name": "minter",
          "type": "address"
        }
      ],
      "stateMutability": "view",
      "type": "function",
      "constant": true
    },
    {
      "inputs": [
        {
          "internalType": "uint256",
          "name": "tokenId",
          "type": "uint256"
        }
      ],
      "name": "ownerOf",
      "outputs": [
        {
          "internalType": "address",
          "name": "",
          "type": "address"
        }
      ],
      "stateMutability": "view",
      "type": "function",
      "constant": true
    },
    {
      "inputs": [
        {
          "internalType": "address",
          "name": "from",
          "type": "address"
        },
        {
          "internalType": "address",
          "name": "to",
          "type": "address"
        },
        {
          "internalType": "uint256",
          "name": "tokenId",
          "type": "uint256"
        }
      ],
      "name": "safeTransferFrom",
      "outputs": [],
      "stateMutability": "nonpayable",
      "type": "function"
    },
    {
      "inputs": [
        {
          "internalType": "address",
          "name": "from",
          "type": "address"
        },
        {
          "internalType": "address",
          "name": "to",
          "type": "address"
        },
        {
          "internalType": "uint256",
          "name": "tokenId",
          "type": "uint256"
        },
        {
          "internalType": "bytes",
          "name": "_data",
          "type": "bytes"
        }
      ],
      "name": "safeTransferFrom",
      "outputs": [],
      "stateMutability": "nonpayable",
      "type": "function"
    },
    {
      "inputs": [
        {
          "internalType": "address",
          "name": "operator",
          "type": "address"
        },
        {
          "internalType": "bool",
          "name": "approved",
          "type": "bool"
        }
      ],
      "name": "setApprovalForAll",
      "outputs": [],
      "stateMutability": "nonpayable",
      "type": "function"
    },
    {
      "inputs": [],
      "name": "symbol",
      "outputs": [
        {
          "internalType": "string",
          "name": "",
          "type": "string"
        }
      ],
      "stateMutability": "view",
      "type": "function",
      "constant": true
    },
    {
      "inputs": [
        {
          "internalType": "uint256",
          "name": "index",
          "type": "uint256"
        }
      ],
      "name": "tokenByIndex",
      "outputs": [
        {
          "internalType": "uint256",
          "name": "",
          "type": "uint256"
        }
      ],
      "stateMutability": "view",
      "type": "function",
      "constant": true
    },
    {
      "inputs": [
        {
          "internalType": "address",
          "name": "owner",
          "type": "address"
        },
        {
          "internalType": "uint256",
          "name": "index",
          "type": "uint256"
        }
      ],
      "name": "tokenOfOwnerByIndex",
      "outputs": [
        {
          "internalType": "uint256",
          "name": "",
          "type": "uint256"
        }
      ],
      "stateMutability": "view",
      "type": "function",
      "constant": true
    },
    {
      "inputs": [
        {
          "internalType": "uint256",
          "name": "tokenId",
          "type": "uint256"
        }
      ],
      "name": "tokenURI",
      "outputs": [
        {
          "internalType": "string",
          "name": "",
          "type": "string"
        }
      ],
      "stateMutability": "view",
      "type": "function",
      "constant": true
    },
    {
      "inputs": [],
      "name": "totalSupply",
      "outputs": [
        {
          "internalType": "uint256",
          "name": "",
          "type": "uint256"
        }
      ],
      "stateMutability": "view",
      "type": "function",
      "constant": true
    },
    {
      "inputs": [
        {
          "internalType": "address",
          "name": "from",
          "type": "address"
        },
        {
          "internalType": "address",
          "name": "to",
          "type": "address"
        },
        {
          "internalType": "uint256",
          "name": "tokenId",
          "type": "uint256"
        }
      ],
      "name": "transferFrom",
      "outputs": [],
      "stateMutability": "nonpayable",
      "type": "function"
    },
    {
      "inputs": [
        {
          "internalType": "bytes4",
          "name": "interfaceId",
          "type": "bytes4"
        }
      ],
      "name": "supportsInterface",
      "outputs": [
        {
          "internalType": "bool",
          "name": "",
          "type": "bool"
        }
      ],
      "stateMutability": "view",
      "type": "function",
      "constant": true
    },
    {
      "inputs": [
        {
          "internalType": "string",
          "name": "_fileName",
          "type": "string"
        },
        {
          "internalType": "string",
          "name": "_fileHash",
          "type": "string"
        },
        {
          "internalType": "string",
          "name": "_fileType",
          "type": "string"
        },
        {
          "internalType": "uint256",
          "name": "_fileSize",
          "type": "uint256"
        }
      ],
      "name": "mint",
      "outputs": [],
      "stateMutability": "nonpayable",
      "type": "function"
    }
  ],
  "bytecode": "0x60806040526000600b553480156200001657600080fd5b506040518060400160405280600381526020017f4e667400000000000000000000000000000000000000000000000000000000008152506040518060400160405280600381526020017f4e4654000000000000000000000000000000000000000000000000000000000081525081600090805190602001906200009b929190620000fe565b508060019080519060200190620000b4929190620000fe565b50505033600e60006101000a81548173ffffffffffffffffffffffffffffffffffffffff021916908373ffffffffffffffffffffffffffffffffffffffff16021790555062000213565b8280546200010c90620001ae565b90600052602060002090601f0160209004810192826200013057600085556200017c565b82601f106200014b57805160ff19168380011785556200017c565b828001600101855582156200017c579182015b828111156200017b5782518255916020019190600101906200015e565b5b5090506200018b91906200018f565b5090565b5b80821115620001aa57600081600090555060010162000190565b5090565b60006002820490506001821680620001c757607f821691505b60208210811415620001de57620001dd620001e4565b5b50919050565b7f4e487b7100000000000000000000000000000000000000000000000000000000600052602260045260246000fd5b613b3a80620002236000396000f3fe608060405234801561001057600080fd5b506004361061012c5760003560e01c806342842e0e116100ad578063a22cb46511610071578063a22cb4651461036e578063b88d4fde1461038a578063c87b56dd146103a6578063e985e9c5146103d6578063f851a440146104065761012c565b806342842e0e146102a45780634f6ccce7146102c05780636352211e146102f057806370a082311461032057806395d89b41146103505761012c565b806318160ddd116100f457806318160ddd146101e957806323b872dd14610207578063265aa621146102235780632f745c591461025857806331b6475c146102885761012c565b806301ffc9a71461013157806306fdde0314610161578063081812fc1461017f578063095ea7b3146101af5780630af2c6ca146101cb575b600080fd5b61014b60048036038101906101469190612956565b610424565b604051610158919061335c565b60405180910390f35b610169610436565b6040516101769190613377565b60405180910390f35b61019960048036038101906101949190612a53565b6104c8565b6040516101a691906132f5565b60405180910390f35b6101c960048036038101906101c4919061291a565b61054d565b005b6101d3610665565b6040516101e09190613659565b60405180910390f35b6101f161066b565b6040516101fe9190613659565b60405180910390f35b610221600480360381019061021c9190612814565b610678565b005b61023d60048036038101906102389190612a53565b6106d8565b60405161024f96959493929190613674565b60405180910390f35b610272600480360381019061026d919061291a565b6108dc565b60405161027f9190613659565b60405180910390f35b6102a2600480360381019061029d91906129a8565b610981565b005b6102be60048036038101906102b99190612814565b610efd565b005b6102da60048036038101906102d59190612a53565b610f1d565b6040516102e79190613659565b60405180910390f35b61030a60048036038101906103059190612a53565b610fb4565b60405161031791906132f5565b60405180910390f35b61033a600480360381019061033591906127af565b611066565b6040516103479190613659565b60405180910390f35b61035861111e565b6040516103659190613377565b60405180910390f35b610388600480360381019061038391906128de565b6111b0565b005b6103a4600480360381019061039f9190612863565b611331565b005b6103c060048036038101906103bb9190612a53565b611393565b6040516103cd9190613377565b60405180910390f35b6103f060048036038101906103eb91906127d8565b61143a565b6040516103fd919061335c565b60405180910390f35b61040e6114ce565b60405161041b91906132f5565b60405180910390f35b600061042f826114f4565b9050919050565b6060600080546104459061392f565b80601f01602080910402602001604051908101604052809291908181526020018280546104719061392f565b80156104be5780601f10610493576101008083540402835291602001916104be565b820191906000526020600020905b8154815290600101906020018083116104a157829003601f168201915b5050505050905090565b60006104d38261156e565b610512576040517f08c379a000000000000000000000000000000000000000000000000000000000815260040161050990613539565b60405180910390fd5b6004600083815260200190815260200160002060009054906101000a900473ffffffffffffffffffffffffffffffffffffffff169050919050565b600061055882610fb4565b90508073ffffffffffffffffffffffffffffffffffffffff168373ffffffffffffffffffffffffffffffffffffffff1614156105c9576040517f08c379a00000000000000000000000000000000000000000000000000000000081526004016105c0906135b9565b60405180910390fd5b8073ffffffffffffffffffffffffffffffffffffffff166105e86115da565b73ffffffffffffffffffffffffffffffffffffffff1614806106175750610616816106116115da565b61143a565b5b610656576040517f08c379a000000000000000000000000000000000000000000000000000000000815260040161064d906134b9565b60405180910390fd5b61066083836115e2565b505050565b600b5481565b6000600880549050905090565b6106896106836115da565b8261169b565b6106c8576040517f08c379a00000000000000000000000000000000000000000000000000000000081526004016106bf906135f9565b60405180910390fd5b6106d3838383611779565b505050565b600a81815481106106e857600080fd5b90600052602060002090600602016000915090508060000154908060010180546107119061392f565b80601f016020809104026020016040519081016040528092919081815260200182805461073d9061392f565b801561078a5780601f1061075f5761010080835404028352916020019161078a565b820191906000526020600020905b81548152906001019060200180831161076d57829003601f168201915b50505050509080600201805461079f9061392f565b80601f01602080910402602001604051908101604052809291908181526020018280546107cb9061392f565b80156108185780601f106107ed57610100808354040283529160200191610818565b820191906000526020600020905b8154815290600101906020018083116107fb57829003601f168201915b50505050509080600301805461082d9061392f565b80601f01602080910402602001604051908101604052809291908181526020018280546108599061392f565b80156108a65780601f1061087b576101008083540402835291602001916108a6565b820191906000526020600020905b81548152906001019060200180831161088957829003601f168201915b5050505050908060040154908060050160009054906101000a900473ffffffffffffffffffffffffffffffffffffffff16905086565b60006108e783611066565b8210610928576040517f08c379a000000000000000000000000000000000000000000000000000000000815260040161091f90613399565b60405180910390fd5b600660008473ffffffffffffffffffffffffffffffffffffffff1673ffffffffffffffffffffffffffffffffffffffff168152602001908152602001600020600083815260200190815260200160002054905092915050565b600082805190602001209050600e60009054906101000a900473ffffffffffffffffffffffffffffffffffffffff1673ffffffffffffffffffffffffffffffffffffffff163373ffffffffffffffffffffffffffffffffffffffff1614610a1d576040517f08c379a0000000000000000000000000000000000000000000000000000000008152600401610a1490613459565b60405180910390fd5b600d85604051610a2d91906132ba565b908152602001604051809103902060009054906101000a900460ff1615610a89576040517f08c379a0000000000000000000000000000000000000000000000000000000008152600401610a8090613639565b60405180910390fd5b600c84604051610a9991906132ba565b908152602001604051809103902060009054906101000a900460ff1615610af5576040517f08c379a0000000000000000000000000000000000000000000000000000000008152600401610aec90613599565b60405180910390fd5b6000855111610b39576040517f08c379a0000000000000000000000000000000000000000000000000000000008152600401610b3090613499565b60405180910390fd5b6000845111610b7d576040517f08c379a0000000000000000000000000000000000000000000000000000000008152600401610b74906133f9565b60405180910390fd5b6000835111610bc1576040517f08c379a0000000000000000000000000000000000000000000000000000000008152600401610bb8906135d9565b60405180910390fd5b6040518060400160405280600a81526020017f696d6167652f6a7065670000000000000000000000000000000000000000000081525080519060200120811480610c4657506040518060400160405280600981526020017f696d6167652f706e6700000000000000000000000000000000000000000000008152508051906020012081145b80610c8c57506040518060400160405280600a81526020017f696d6167652f74696666000000000000000000000000000000000000000000008152508051906020012081145b80610cd257506040518060400160405280600981526020017f696d6167652f67696600000000000000000000000000000000000000000000008152508051906020012081145b610cdb57600080fd5b60008211610ce857600080fd5b600b6000815480929190610cfb90613961565b919050555060006040518060c00160405280600b5481526020018781526020018681526020018581526020018481526020013373ffffffffffffffffffffffffffffffffffffffff168152509050600a819080600181540180825580915050600190039060005260206000209060060201600090919091909150600082015181600001556020820151816001019080519060200190610d9b9291906125d3565b506040820151816002019080519060200190610db89291906125d3565b506060820151816003019080519060200190610dd59291906125d3565b506080820151816004015560a08201518160050160006101000a81548173ffffffffffffffffffffffffffffffffffffffff021916908373ffffffffffffffffffffffffffffffffffffffff1602179055505050610e44336001600a80549050610e3f9190613845565b6119d5565b6001600d87604051610e5691906132ba565b908152602001604051809103902060006101000a81548160ff0219169083151502179055506001600c86604051610e8d91906132ba565b908152602001604051809103902060006101000a81548160ff0219169083151502179055507f7592799155125936acd3dadd45ad8f1809b12dfea86734da537b76d6de76767a600b548787878733604051610eed96959493929190613674565b60405180910390a1505050505050565b610f1883838360405180602001604052806000815250611331565b505050565b6000610f2761066b565b8210610f68576040517f08c379a0000000000000000000000000000000000000000000000000000000008152600401610f5f90613619565b60405180910390fd5b60088281548110610fa2577f4e487b7100000000000000000000000000000000000000000000000000000000600052603260045260246000fd5b90600052602060002001549050919050565b6000806002600084815260200190815260200160002060009054906101000a900473ffffffffffffffffffffffffffffffffffffffff169050600073ffffffffffffffffffffffffffffffffffffffff168173ffffffffffffffffffffffffffffffffffffffff16141561105d576040517f08c379a0000000000000000000000000000000000000000000000000000000008152600401611054906134f9565b60405180910390fd5b80915050919050565b60008073ffffffffffffffffffffffffffffffffffffffff168273ffffffffffffffffffffffffffffffffffffffff1614156110d7576040517f08c379a00000000000000000000000000000000000000000000000000000000081526004016110ce906134d9565b60405180910390fd5b600360008373ffffffffffffffffffffffffffffffffffffffff1673ffffffffffffffffffffffffffffffffffffffff168152602001908152602001600020549050919050565b60606001805461112d9061392f565b80601f01602080910402602001604051908101604052809291908181526020018280546111599061392f565b80156111a65780601f1061117b576101008083540402835291602001916111a6565b820191906000526020600020905b81548152906001019060200180831161118957829003601f168201915b5050505050905090565b6111b86115da565b73ffffffffffffffffffffffffffffffffffffffff168273ffffffffffffffffffffffffffffffffffffffff161415611226576040517f08c379a000000000000000000000000000000000000000000000000000000000815260040161121d90613439565b60405180910390fd5b80600560006112336115da565b73ffffffffffffffffffffffffffffffffffffffff1673ffffffffffffffffffffffffffffffffffffffff16815260200190815260200160002060008473ffffffffffffffffffffffffffffffffffffffff1673ffffffffffffffffffffffffffffffffffffffff16815260200190815260200160002060006101000a81548160ff0219169083151502179055508173ffffffffffffffffffffffffffffffffffffffff166112e06115da565b73ffffffffffffffffffffffffffffffffffffffff167f17307eab39ab6107e8899845ad3d59bd9653f200f220920489ca2b5937696c3183604051611325919061335c565b60405180910390a35050565b61134261133c6115da565b8361169b565b611381576040517f08c379a0000000000000000000000000000000000000000000000000000000008152600401611378906135f9565b60405180910390fd5b61138d848484846119f3565b50505050565b606061139e8261156e565b6113dd576040517f08c379a00000000000000000000000000000000000000000000000000000000081526004016113d490613579565b60405180910390fd5b60006113e7611a4f565b905060008151116114075760405180602001604052806000815250611432565b8061141184611a66565b6040516020016114229291906132d1565b6040516020818303038152906040525b915050919050565b6000600560008473ffffffffffffffffffffffffffffffffffffffff1673ffffffffffffffffffffffffffffffffffffffff16815260200190815260200160002060008373ffffffffffffffffffffffffffffffffffffffff1673ffffffffffffffffffffffffffffffffffffffff16815260200190815260200160002060009054906101000a900460ff16905092915050565b600e60009054906101000a900473ffffffffffffffffffffffffffffffffffffffff1681565b60007f780e9d63000000000000000000000000000000000000000000000000000000007bffffffffffffffffffffffffffffffffffffffffffffffffffffffff1916827bffffffffffffffffffffffffffffffffffffffffffffffffffffffff19161480611567575061156682611c13565b5b9050919050565b60008073ffffffffffffffffffffffffffffffffffffffff166002600084815260200190815260200160002060009054906101000a900473ffffffffffffffffffffffffffffffffffffffff1673ffffffffffffffffffffffffffffffffffffffff1614159050919050565b600033905090565b816004600083815260200190815260200160002060006101000a81548173ffffffffffffffffffffffffffffffffffffffff021916908373ffffffffffffffffffffffffffffffffffffffff160217905550808273ffffffffffffffffffffffffffffffffffffffff1661165583610fb4565b73ffffffffffffffffffffffffffffffffffffffff167f8c5be1e5ebec7d5bd14f71427d1e84f3dd0314c0f7b2291e5b200ac8c7c3b92560405160405180910390a45050565b60006116a68261156e565b6116e5576040517f08c379a00000000000000000000000000000000000000000000000000000000081526004016116dc90613479565b60405180910390fd5b60006116f083610fb4565b90508073ffffffffffffffffffffffffffffffffffffffff168473ffffffffffffffffffffffffffffffffffffffff16148061175f57508373ffffffffffffffffffffffffffffffffffffffff16611747846104c8565b73ffffffffffffffffffffffffffffffffffffffff16145b80611770575061176f818561143a565b5b91505092915050565b8273ffffffffffffffffffffffffffffffffffffffff1661179982610fb4565b73ffffffffffffffffffffffffffffffffffffffff16146117ef576040517f08c379a00000000000000000000000000000000000000000000000000000000081526004016117e690613559565b60405180910390fd5b600073ffffffffffffffffffffffffffffffffffffffff168273ffffffffffffffffffffffffffffffffffffffff16141561185f576040517f08c379a000000000000000000000000000000000000000000000000000000000815260040161185690613419565b60405180910390fd5b61186a838383611cf5565b6118756000826115e2565b6001600360008573ffffffffffffffffffffffffffffffffffffffff1673ffffffffffffffffffffffffffffffffffffffff16815260200190815260200160002060008282546118c59190613845565b925050819055506001600360008473ffffffffffffffffffffffffffffffffffffffff1673ffffffffffffffffffffffffffffffffffffffff168152602001908152602001600020600082825461191c91906137be565b92505081905550816002600083815260200190815260200160002060006101000a81548173ffffffffffffffffffffffffffffffffffffffff021916908373ffffffffffffffffffffffffffffffffffffffff160217905550808273ffffffffffffffffffffffffffffffffffffffff168473ffffffffffffffffffffffffffffffffffffffff167fddf252ad1be2c89b69c2b068fc378daa952ba7f163c4a11628f55a4df523b3ef60405160405180910390a4505050565b6119ef828260405180602001604052806000815250611d05565b5050565b6119fe848484611779565b611a0a84848484611d60565b611a49576040517f08c379a0000000000000000000000000000000000000000000000000000000008152600401611a40906133b9565b60405180910390fd5b50505050565b606060405180602001604052806000815250905090565b60606000821415611aae576040518060400160405280600181526020017f30000000000000000000000000000000000000000000000000000000000000008152509050611c0e565b600082905060005b60008214611ae0578080611ac990613961565b915050600a82611ad99190613814565b9150611ab6565b60008167ffffffffffffffff811115611b22577f4e487b7100000000000000000000000000000000000000000000000000000000600052604160045260246000fd5b6040519080825280601f01601f191660200182016040528015611b545781602001600182028036833780820191505090505b5090505b60008514611c0757600182611b6d9190613845565b9150600a85611b7c91906139aa565b6030611b8891906137be565b60f81b818381518110611bc4577f4e487b7100000000000000000000000000000000000000000000000000000000600052603260045260246000fd5b60200101907effffffffffffffffffffffffffffffffffffffffffffffffffffffffffffff1916908160001a905350600a85611c009190613814565b9450611b58565b8093505050505b919050565b60007f80ac58cd000000000000000000000000000000000000000000000000000000007bffffffffffffffffffffffffffffffffffffffffffffffffffffffff1916827bffffffffffffffffffffffffffffffffffffffffffffffffffffffff19161480611cde57507f5b5e139f000000000000000000000000000000000000000000000000000000007bffffffffffffffffffffffffffffffffffffffffffffffffffffffff1916827bffffffffffffffffffffffffffffffffffffffffffffffffffffffff1916145b80611cee5750611ced82611ef7565b5b9050919050565b611d00838383611f61565b505050565b611d0f8383612075565b611d1c6000848484611d60565b611d5b576040517f08c379a0000000000000000000000000000000000000000000000000000000008152600401611d52906133b9565b60405180910390fd5b505050565b6000611d818473ffffffffffffffffffffffffffffffffffffffff16612243565b15611eea578373ffffffffffffffffffffffffffffffffffffffff1663150b7a02611daa6115da565b8786866040518563ffffffff1660e01b8152600401611dcc9493929190613310565b602060405180830381600087803b158015611de657600080fd5b505af1925050508015611e1757506040513d601f19601f82011682018060405250810190611e14919061297f565b60015b611e9a573d8060008114611e47576040519150601f19603f3d011682016040523d82523d6000602084013e611e4c565b606091505b50600081511415611e92576040517f08c379a0000000000000000000000000000000000000000000000000000000008152600401611e89906133b9565b60405180910390fd5b805181602001fd5b63150b7a0260e01b7bffffffffffffffffffffffffffffffffffffffffffffffffffffffff1916817bffffffffffffffffffffffffffffffffffffffffffffffffffffffff191614915050611eef565b600190505b949350505050565b60007f01ffc9a7000000000000000000000000000000000000000000000000000000007bffffffffffffffffffffffffffffffffffffffffffffffffffffffff1916827bffffffffffffffffffffffffffffffffffffffffffffffffffffffff1916149050919050565b611f6c838383612256565b600073ffffffffffffffffffffffffffffffffffffffff168373ffffffffffffffffffffffffffffffffffffffff161415611faf57611faa8161225b565b611fee565b8173ffffffffffffffffffffffffffffffffffffffff168373ffffffffffffffffffffffffffffffffffffffff1614611fed57611fec83826122a4565b5b5b600073ffffffffffffffffffffffffffffffffffffffff168273ffffffffffffffffffffffffffffffffffffffff1614156120315761202c81612411565b612070565b8273ffffffffffffffffffffffffffffffffffffffff168273ffffffffffffffffffffffffffffffffffffffff161461206f5761206e8282612554565b5b5b505050565b600073ffffffffffffffffffffffffffffffffffffffff168273ffffffffffffffffffffffffffffffffffffffff1614156120e5576040517f08c379a00000000000000000000000000000000000000000000000000000000081526004016120dc90613519565b60405180910390fd5b6120ee8161156e565b1561212e576040517f08c379a0000000000000000000000000000000000000000000000000000000008152600401612125906133d9565b60405180910390fd5b61213a60008383611cf5565b6001600360008473ffffffffffffffffffffffffffffffffffffffff1673ffffffffffffffffffffffffffffffffffffffff168152602001908152602001600020600082825461218a91906137be565b92505081905550816002600083815260200190815260200160002060006101000a81548173ffffffffffffffffffffffffffffffffffffffff021916908373ffffffffffffffffffffffffffffffffffffffff160217905550808273ffffffffffffffffffffffffffffffffffffffff16600073ffffffffffffffffffffffffffffffffffffffff167fddf252ad1be2c89b69c2b068fc378daa952ba7f163c4a11628f55a4df523b3ef60405160405180910390a45050565b600080823b905060008111915050919050565b505050565b6008805490506009600083815260200190815260200160002081905550600881908060018154018082558091505060019003906000526020600020016000909190919091505550565b600060016122b184611066565b6122bb9190613845565b90506000600760008481526020019081526020016000205490508181146123a0576000600660008673ffffffffffffffffffffffffffffffffffffffff1673ffffffffffffffffffffffffffffffffffffffff168152602001908152602001600020600084815260200190815260200160002054905080600660008773ffffffffffffffffffffffffffffffffffffffff1673ffffffffffffffffffffffffffffffffffffffff168152602001908152602001600020600084815260200190815260200160002081905550816007600083815260200190815260200160002081905550505b6007600084815260200190815260200160002060009055600660008573ffffffffffffffffffffffffffffffffffffffff1673ffffffffffffffffffffffffffffffffffffffff16815260200190815260200160002060008381526020019081526020016000206000905550505050565b600060016008805490506124259190613845565b905060006009600084815260200190815260200160002054905060006008838154811061247b577f4e487b7100000000000000000000000000000000000000000000000000000000600052603260045260246000fd5b9060005260206000200154905080600883815481106124c3577f4e487b7100000000000000000000000000000000000000000000000000000000600052603260045260246000fd5b906000526020600020018190555081600960008381526020019081526020016000208190555060096000858152602001908152602001600020600090556008805480612538577f4e487b7100000000000000000000000000000000000000000000000000000000600052603160045260246000fd5b6001900381819060005260206000200160009055905550505050565b600061255f83611066565b905081600660008573ffffffffffffffffffffffffffffffffffffffff1673ffffffffffffffffffffffffffffffffffffffff168152602001908152602001600020600083815260200190815260200160002081905550806007600084815260200190815260200160002081905550505050565b8280546125df9061392f565b90600052602060002090601f0160209004810192826126015760008555612648565b82601f1061261a57805160ff1916838001178555612648565b82800160010185558215612648579182015b8281111561264757825182559160200191906001019061262c565b5b5090506126559190612659565b5090565b5b8082111561267257600081600090555060010161265a565b5090565b60006126896126848461371b565b6136ea565b9050828152602081018484840111156126a157600080fd5b6126ac8482856138ed565b509392505050565b60006126c76126c28461374b565b6136ea565b9050828152602081018484840111156126df57600080fd5b6126ea8482856138ed565b509392505050565b60008135905061270181613aa8565b92915050565b60008135905061271681613abf565b92915050565b60008135905061272b81613ad6565b92915050565b60008151905061274081613ad6565b92915050565b600082601f83011261275757600080fd5b8135612767848260208601612676565b91505092915050565b600082601f83011261278157600080fd5b81356127918482602086016126b4565b91505092915050565b6000813590506127a981613aed565b92915050565b6000602082840312156127c157600080fd5b60006127cf848285016126f2565b91505092915050565b600080604083850312156127eb57600080fd5b60006127f9858286016126f2565b925050602061280a858286016126f2565b9150509250929050565b60008060006060848603121561282957600080fd5b6000612837868287016126f2565b9350506020612848868287016126f2565b92505060406128598682870161279a565b9150509250925092565b6000806000806080858703121561287957600080fd5b6000612887878288016126f2565b9450506020612898878288016126f2565b93505060406128a98782880161279a565b925050606085013567ffffffffffffffff8111156128c657600080fd5b6128d287828801612746565b91505092959194509250565b600080604083850312156128f157600080fd5b60006128ff858286016126f2565b925050602061291085828601612707565b9150509250929050565b6000806040838503121561292d57600080fd5b600061293b858286016126f2565b925050602061294c8582860161279a565b9150509250929050565b60006020828403121561296857600080fd5b60006129768482850161271c565b91505092915050565b60006020828403121561299157600080fd5b600061299f84828501612731565b91505092915050565b600080600080608085870312156129be57600080fd5b600085013567ffffffffffffffff8111156129d857600080fd5b6129e487828801612770565b945050602085013567ffffffffffffffff811115612a0157600080fd5b612a0d87828801612770565b935050604085013567ffffffffffffffff811115612a2a57600080fd5b612a3687828801612770565b9250506060612a478782880161279a565b91505092959194509250565b600060208284031215612a6557600080fd5b6000612a738482850161279a565b91505092915050565b612a8581613879565b82525050565b612a948161388b565b82525050565b6000612aa58261377b565b612aaf8185613791565b9350612abf8185602086016138fc565b612ac881613a97565b840191505092915050565b6000612ade82613786565b612ae881856137a2565b9350612af88185602086016138fc565b612b0181613a97565b840191505092915050565b6000612b1782613786565b612b2181856137b3565b9350612b318185602086016138fc565b80840191505092915050565b6000612b4a602b836137a2565b91507f455243373231456e756d657261626c653a206f776e657220696e646578206f7560008301527f74206f6620626f756e64730000000000000000000000000000000000000000006020830152604082019050919050565b6000612bb06032836137a2565b91507f4552433732313a207472616e7366657220746f206e6f6e20455243373231526560008301527f63656976657220696d706c656d656e74657200000000000000000000000000006020830152604082019050919050565b6000612c16601c836137a2565b91507f4552433732313a20746f6b656e20616c7265616479206d696e746564000000006000830152602082019050919050565b6000612c56601b836137a2565b91507f66696c652068617368206d757374206e6f7420626520656d70747900000000006000830152602082019050919050565b6000612c966024836137a2565b91507f4552433732313a207472616e7366657220746f20746865207a65726f2061646460008301527f72657373000000000000000000000000000000000000000000000000000000006020830152604082019050919050565b6000612cfc6019836137a2565b91507f4552433732313a20617070726f766520746f2063616c6c6572000000000000006000830152602082019050919050565b6000612d3c600a836137a2565b91507f6f6e6c792061646d696e000000000000000000000000000000000000000000006000830152602082019050919050565b6000612d7c602c836137a2565b91507f4552433732313a206f70657261746f7220717565727920666f72206e6f6e657860008301527f697374656e7420746f6b656e00000000000000000000000000000000000000006020830152604082019050919050565b6000612de2601b836137a2565b91507f66696c65206e616d65206d757374206e6f7420626520656d70747900000000006000830152602082019050919050565b6000612e226038836137a2565b91507f4552433732313a20617070726f76652063616c6c6572206973206e6f74206f7760008301527f6e6572206e6f7220617070726f76656420666f7220616c6c00000000000000006020830152604082019050919050565b6000612e88602a836137a2565b91507f4552433732313a2062616c616e636520717565727920666f7220746865207a6560008301527f726f2061646472657373000000000000000000000000000000000000000000006020830152604082019050919050565b6000612eee6029836137a2565b91507f4552433732313a206f776e657220717565727920666f72206e6f6e657869737460008301527f656e7420746f6b656e00000000000000000000000000000000000000000000006020830152604082019050919050565b6000612f546020836137a2565b91507f4552433732313a206d696e7420746f20746865207a65726f20616464726573736000830152602082019050919050565b6000612f94602c836137a2565b91507f4552433732313a20617070726f76656420717565727920666f72206e6f6e657860008301527f697374656e7420746f6b656e00000000000000000000000000000000000000006020830152604082019050919050565b6000612ffa6029836137a2565b91507f4552433732313a207472616e73666572206f6620746f6b656e2074686174206960008301527f73206e6f74206f776e00000000000000000000000000000000000000000000006020830152604082019050919050565b6000613060602f836137a2565b91507f4552433732314d657461646174613a2055524920717565727920666f72206e6f60008301527f6e6578697374656e7420746f6b656e00000000000000000000000000000000006020830152604082019050919050565b60006130c66018836137a2565b91507f66696c652068617368206d75737420626520756e6971756500000000000000006000830152602082019050919050565b60006131066021836137a2565b91507f4552433732313a20617070726f76616c20746f2063757272656e74206f776e6560008301527f72000000000000000000000000000000000000000000000000000000000000006020830152604082019050919050565b600061316c601b836137a2565b91507f66696c652074797065206d757374206e6f7420626520656d70747900000000006000830152602082019050919050565b60006131ac6031836137a2565b91507f4552433732313a207472616e736665722063616c6c6572206973206e6f74206f60008301527f776e6572206e6f7220617070726f7665640000000000000000000000000000006020830152604082019050919050565b6000613212602c836137a2565b91507f455243373231456e756d657261626c653a20676c6f62616c20696e646578206f60008301527f7574206f6620626f756e647300000000000000000000000000000000000000006020830152604082019050919050565b60006132786018836137a2565b91507f66696c65206e616d65206d75737420626520756e6971756500000000000000006000830152602082019050919050565b6132b4816138e3565b82525050565b60006132c68284612b0c565b915081905092915050565b60006132dd8285612b0c565b91506132e98284612b0c565b91508190509392505050565b600060208201905061330a6000830184612a7c565b92915050565b60006080820190506133256000830187612a7c565b6133326020830186612a7c565b61333f60408301856132ab565b81810360608301526133518184612a9a565b905095945050505050565b60006020820190506133716000830184612a8b565b92915050565b600060208201905081810360008301526133918184612ad3565b905092915050565b600060208201905081810360008301526133b281612b3d565b9050919050565b600060208201905081810360008301526133d281612ba3565b9050919050565b600060208201905081810360008301526133f281612c09565b9050919050565b6000602082019050818103600083015261341281612c49565b9050919050565b6000602082019050818103600083015261343281612c89565b9050919050565b6000602082019050818103600083015261345281612cef565b9050919050565b6000602082019050818103600083015261347281612d2f565b9050919050565b6000602082019050818103600083015261349281612d6f565b9050919050565b600060208201905081810360008301526134b281612dd5565b9050919050565b600060208201905081810360008301526134d281612e15565b9050919050565b600060208201905081810360008301526134f281612e7b565b9050919050565b6000602082019050818103600083015261351281612ee1565b9050919050565b6000602082019050818103600083015261353281612f47565b9050919050565b6000602082019050818103600083015261355281612f87565b9050919050565b6000602082019050818103600083015261357281612fed565b9050919050565b6000602082019050818103600083015261359281613053565b9050919050565b600060208201905081810360008301526135b2816130b9565b9050919050565b600060208201905081810360008301526135d2816130f9565b9050919050565b600060208201905081810360008301526135f28161315f565b9050919050565b600060208201905081810360008301526136128161319f565b9050919050565b6000602082019050818103600083015261363281613205565b9050919050565b600060208201905081810360008301526136528161326b565b9050919050565b600060208201905061366e60008301846132ab565b92915050565b600060c08201905061368960008301896132ab565b818103602083015261369b8188612ad3565b905081810360408301526136af8187612ad3565b905081810360608301526136c38186612ad3565b90506136d260808301856132ab565b6136df60a0830184612a7c565b979650505050505050565b6000604051905081810181811067ffffffffffffffff8211171561371157613710613a68565b5b8060405250919050565b600067ffffffffffffffff82111561373657613735613a68565b5b601f19601f8301169050602081019050919050565b600067ffffffffffffffff82111561376657613765613a68565b5b601f19601f8301169050602081019050919050565b600081519050919050565b600081519050919050565b600082825260208201905092915050565b600082825260208201905092915050565b600081905092915050565b60006137c9826138e3565b91506137d4836138e3565b9250827fffffffffffffffffffffffffffffffffffffffffffffffffffffffffffffffff03821115613809576138086139db565b5b828201905092915050565b600061381f826138e3565b915061382a836138e3565b92508261383a57613839613a0a565b5b828204905092915050565b6000613850826138e3565b915061385b836138e3565b92508282101561386e5761386d6139db565b5b828203905092915050565b6000613884826138c3565b9050919050565b60008115159050919050565b60007fffffffff0000000000000000000000000000000000000000000000000000000082169050919050565b600073ffffffffffffffffffffffffffffffffffffffff82169050919050565b6000819050919050565b82818337600083830152505050565b60005b8381101561391a5780820151818401526020810190506138ff565b83811115613929576000848401525b50505050565b6000600282049050600182168061394757607f821691505b6020821081141561395b5761395a613a39565b5b50919050565b600061396c826138e3565b91507fffffffffffffffffffffffffffffffffffffffffffffffffffffffffffffffff82141561399f5761399e6139db565b5b600182019050919050565b60006139b5826138e3565b91506139c0836138e3565b9250826139d0576139cf613a0a565b5b828206905092915050565b7f4e487b7100000000000000000000000000000000000000000000000000000000600052601160045260246000fd5b7f4e487b7100000000000000000000000000000000000000000000000000000000600052601260045260246000fd5b7f4e487b7100000000000000000000000000000000000000000000000000000000600052602260045260246000fd5b7f4e487b7100000000000000000000000000000000000000000000000000000000600052604160045260246000fd5b6000601f19601f8301169050919050565b613ab181613879565b8114613abc57600080fd5b50565b613ac88161388b565b8114613ad357600080fd5b50565b613adf81613897565b8114613aea57600080fd5b50565b613af6816138e3565b8114613b0157600080fd5b5056fea264697066735822122038d692bb08ecee8b1a4c016b4ae1d8391de0a70021c195632eabdba3e4ed2fc864736f6c63430008000033",
  "immutableReferences": {},
  "source": "// SPDX-License-Identifier: MIT\npragma solidity ^0.8.0;\n\nimport \"@openzeppelin/contracts/token/ERC721/ERC721.sol\";\nimport \"@openzeppelin/contracts/token/ERC721/extensions/ERC721Enumerable.sol\";\n\ncontract Nft is ERC721, ERC721Enumerable {\n  File[] public nfts;\n  uint public nftCount = 0;\n  mapping(string => bool) _hashExists;\n  mapping(string => bool) _nameExists;\n  address public admin;\n\n  struct File {\n    uint fileId;\n    string fileName;\n    string fileHash;\n    string fileType;\n    uint fileSize;\n    address minter;\n  }\n\n  event FileMinted(\n    uint fileId,\n    string fileName,\n    string fileHash,\n    string fileType,\n    uint fileSize,\n    address minter\n  );\n\n  constructor() ERC721(\"Nft\", \"NFT\") {\n    admin = msg.sender;\n  }\n\n  function _beforeTokenTransfer(address from, address to, uint256 tokenId)\n      internal\n      override(ERC721, ERC721Enumerable)\n  {\n      super._beforeTokenTransfer(from, to, tokenId);\n  }\n\n  function supportsInterface(bytes4 interfaceId)\n      public\n      view\n      override(ERC721, ERC721Enumerable)\n      returns (bool)\n  {\n      return super.supportsInterface(interfaceId);\n  }\n\n  function mint(string memory _fileName, string memory _fileHash, string memory _fileType, uint _fileSize) external {\n    bytes32 fileType = keccak256(bytes(_fileType));\n    require(msg.sender == admin, 'only admin');\n    require(!_nameExists[_fileName], 'file name must be unique');\n    require(!_hashExists[_fileHash], 'file hash must be unique');\n    require(bytes(_fileName).length > 0, 'file name must not be empty');\n    require(bytes(_fileHash).length > 0, 'file hash must not be empty');\n    require(bytes(_fileType).length > 0, 'file type must not be empty');\n    require(\n      fileType == keccak256(bytes(\"image/jpeg\")) \n      || fileType == keccak256(bytes(\"image/png\")) \n      || fileType == keccak256(bytes(\"image/tiff\")) \n      || fileType == keccak256(bytes(\"image/gif\"))\n    );\n    require(_fileSize > 0);\n\n    nftCount ++;\n    File memory file = File(nftCount, _fileName, _fileHash, _fileType, _fileSize, msg.sender);\n\n    nfts.push(file);\n    _safeMint(msg.sender, nfts.length - 1);\n    _nameExists[_fileName] = true;\n    _hashExists[_fileHash] = true;\n    emit FileMinted(nftCount, _fileName, _fileHash, _fileType, _fileSize, msg.sender);\n  }\n\n}\n",
  "sourcePath": "/Users/blee/Projects/portfolio/nft-ipfs/src/contracts/Nft.sol",
  "compiler": {
    "name": "solc",
    "version": "0.8.0+commit.c7dfd78e.Emscripten.clang"
  },
  "schemaVersion": "3.4.1",
  "updatedAt": "2021-06-14T14:48:02.466Z",
  "networkType": "ethereum",
  "devdoc": {
    "kind": "dev",
    "methods": {
      "approve(address,uint256)": {
        "details": "See {IERC721-approve}."
      },
      "balanceOf(address)": {
        "details": "See {IERC721-balanceOf}."
      },
      "getApproved(uint256)": {
        "details": "See {IERC721-getApproved}."
      },
      "isApprovedForAll(address,address)": {
        "details": "See {IERC721-isApprovedForAll}."
      },
      "name()": {
        "details": "See {IERC721Metadata-name}."
      },
      "ownerOf(uint256)": {
        "details": "See {IERC721-ownerOf}."
      },
      "safeTransferFrom(address,address,uint256)": {
        "details": "See {IERC721-safeTransferFrom}."
      },
      "safeTransferFrom(address,address,uint256,bytes)": {
        "details": "See {IERC721-safeTransferFrom}."
      },
      "setApprovalForAll(address,bool)": {
        "details": "See {IERC721-setApprovalForAll}."
      },
      "symbol()": {
        "details": "See {IERC721Metadata-symbol}."
      },
      "tokenByIndex(uint256)": {
        "details": "See {IERC721Enumerable-tokenByIndex}."
      },
      "tokenOfOwnerByIndex(address,uint256)": {
        "details": "See {IERC721Enumerable-tokenOfOwnerByIndex}."
      },
      "tokenURI(uint256)": {
        "details": "See {IERC721Metadata-tokenURI}."
      },
      "totalSupply()": {
        "details": "See {IERC721Enumerable-totalSupply}."
      },
      "transferFrom(address,address,uint256)": {
        "details": "See {IERC721-transferFrom}."
      }
    },
    "version": 1
  },
  "userdoc": {
    "kind": "user",
    "methods": {},
    "version": 1
  }
}